{
  "_format": "hh-sol-artifact-1",
  "contractName": "MedicalRecords",
  "sourceName": "contracts/Records.sol",
  "abi": [
    {
      "inputs": [
        {
          "internalType": "string",
          "name": "_name",
          "type": "string"
        }
      ],
      "name": "addDoctor",
      "outputs": [],
      "stateMutability": "payable",
      "type": "function"
    },
    {
      "inputs": [
        {
          "internalType": "string",
          "name": "_name",
          "type": "string"
        }
      ],
      "name": "addPatient",
      "outputs": [],
      "stateMutability": "payable",
      "type": "function"
    },
    {
      "inputs": [
        {
          "internalType": "uint256",
          "name": "_id",
          "type": "uint256"
        }
      ],
      "name": "getDoctorById",
      "outputs": [
        {
          "components": [
            {
              "internalType": "uint256",
              "name": "id",
              "type": "uint256"
            },
            {
              "internalType": "string",
              "name": "name",
              "type": "string"
            }
          ],
          "internalType": "struct MedicalRecords.Doctor",
          "name": "",
          "type": "tuple"
        }
      ],
      "stateMutability": "view",
      "type": "function"
    },
    {
      "inputs": [],
      "name": "getDoctors",
      "outputs": [
        {
          "components": [
            {
              "internalType": "uint256",
              "name": "id",
              "type": "uint256"
            },
            {
              "internalType": "string",
              "name": "name",
              "type": "string"
            }
          ],
          "internalType": "struct MedicalRecords.Doctor[]",
          "name": "",
          "type": "tuple[]"
        }
      ],
      "stateMutability": "view",
      "type": "function"
    },
    {
      "inputs": [
        {
          "internalType": "uint256",
          "name": "_id",
          "type": "uint256"
        }
      ],
      "name": "getPatientById",
      "outputs": [
        {
          "components": [
            {
              "internalType": "uint256",
              "name": "id",
              "type": "uint256"
            },
            {
              "internalType": "string",
              "name": "name",
              "type": "string"
            }
          ],
          "internalType": "struct MedicalRecords.Patient",
          "name": "",
          "type": "tuple"
        }
      ],
      "stateMutability": "view",
      "type": "function"
    },
    {
      "inputs": [],
      "name": "getPatients",
      "outputs": [
        {
          "components": [
            {
              "internalType": "uint256",
              "name": "id",
              "type": "uint256"
            },
            {
              "internalType": "string",
              "name": "name",
              "type": "string"
            }
          ],
          "internalType": "struct MedicalRecords.Patient[]",
          "name": "",
          "type": "tuple[]"
        }
      ],
      "stateMutability": "view",
      "type": "function"
    }
  ],
  "bytecode": "0x608060405260015f5560018055348015610017575f80fd5b50610f66806100255f395ff3fe608060405260043610610054575f3560e01c80630be617001461005857806312ad1c371461007457806367a36e0b1461009e57806391e58375146100da578063b13d5d9414610116578063fb87cf9414610140575b5f80fd5b610072600480360381019061006d9190610787565b61015c565b005b34801561007f575f80fd5b506100886101da565b6040516100959190610955565b60405180910390f35b3480156100a9575f80fd5b506100c460048036038101906100bf919061099f565b6102cf565b6040516100d19190610a04565b60405180910390f35b3480156100e5575f80fd5b5061010060048036038101906100fb919061099f565b6103b3565b60405161010d9190610a5e565b60405180910390f35b348015610121575f80fd5b5061012a610497565b6040516101379190610b73565b60405180910390f35b61015a60048036038101906101559190610787565b61058c565b005b5f60405180604001604052806001548152602001838152509050600381908060018154018082558091505060019003905f5260205f2090600202015f909190919091505f820151815f015560208201518160010190816101bc9190610d8d565b50505060015f8154809291906101d190610e89565b91905055505050565b60606002805480602002602001604051908101604052809291908181526020015f905b828210156102c6578382905f5260205f2090600202016040518060400160405290815f820154815260200160018201805461023790610bc0565b80601f016020809104026020016040519081016040528092919081815260200182805461026390610bc0565b80156102ae5780601f10610285576101008083540402835291602001916102ae565b820191905f5260205f20905b81548152906001019060200180831161029157829003601f168201915b505050505081525050815260200190600101906101fd565b50505050905090565b6102d7610608565b5f60026001846102e79190610ed0565b815481106102f8576102f7610f03565b5b905f5260205f2090600202019050806040518060400160405290815f820154815260200160018201805461032b90610bc0565b80601f016020809104026020016040519081016040528092919081815260200182805461035790610bc0565b80156103a25780601f10610379576101008083540402835291602001916103a2565b820191905f5260205f20905b81548152906001019060200180831161038557829003601f168201915b505050505081525050915050919050565b6103bb610621565b5f60036001846103cb9190610ed0565b815481106103dc576103db610f03565b5b905f5260205f2090600202019050806040518060400160405290815f820154815260200160018201805461040f90610bc0565b80601f016020809104026020016040519081016040528092919081815260200182805461043b90610bc0565b80156104865780601f1061045d57610100808354040283529160200191610486565b820191905f5260205f20905b81548152906001019060200180831161046957829003601f168201915b505050505081525050915050919050565b60606003805480602002602001604051908101604052809291908181526020015f905b82821015610583578382905f5260205f2090600202016040518060400160405290815f82015481526020016001820180546104f490610bc0565b80601f016020809104026020016040519081016040528092919081815260200182805461052090610bc0565b801561056b5780601f106105425761010080835404028352916020019161056b565b820191905f5260205f20905b81548152906001019060200180831161054e57829003601f168201915b505050505081525050815260200190600101906104ba565b50505050905090565b5f60405180604001604052805f548152602001838152509050600281908060018154018082558091505060019003905f5260205f2090600202015f909190919091505f820151815f015560208201518160010190816105eb9190610d8d565b5050505f808154809291906105ff90610e89565b91905055505050565b60405180604001604052805f8152602001606081525090565b60405180604001604052805f8152602001606081525090565b5f604051905090565b5f80fd5b5f80fd5b5f80fd5b5f80fd5b5f601f19601f8301169050919050565b7f4e487b71000000000000000000000000000000000000000000000000000000005f52604160045260245ffd5b61069982610653565b810181811067ffffffffffffffff821117156106b8576106b7610663565b5b80604052505050565b5f6106ca61063a565b90506106d68282610690565b919050565b5f67ffffffffffffffff8211156106f5576106f4610663565b5b6106fe82610653565b9050602081019050919050565b828183375f83830152505050565b5f61072b610726846106db565b6106c1565b9050828152602081018484840111156107475761074661064f565b5b61075284828561070b565b509392505050565b5f82601f83011261076e5761076d61064b565b5b813561077e848260208601610719565b91505092915050565b5f6020828403121561079c5761079b610643565b5b5f82013567ffffffffffffffff8111156107b9576107b8610647565b5b6107c58482850161075a565b91505092915050565b5f81519050919050565b5f82825260208201905092915050565b5f819050602082019050919050565b5f819050919050565b610809816107f7565b82525050565b5f81519050919050565b5f82825260208201905092915050565b5f5b8381101561084657808201518184015260208101905061082b565b5f8484015250505050565b5f61085b8261080f565b6108658185610819565b9350610875818560208601610829565b61087e81610653565b840191505092915050565b5f604083015f83015161089e5f860182610800565b50602083015184820360208601526108b68282610851565b9150508091505092915050565b5f6108ce8383610889565b905092915050565b5f602082019050919050565b5f6108ec826107ce565b6108f681856107d8565b935083602082028501610908856107e8565b805f5b85811015610943578484038952815161092485826108c3565b945061092f836108d6565b925060208a0199505060018101905061090b565b50829750879550505050505092915050565b5f6020820190508181035f83015261096d81846108e2565b905092915050565b61097e816107f7565b8114610988575f80fd5b50565b5f8135905061099981610975565b92915050565b5f602082840312156109b4576109b3610643565b5b5f6109c18482850161098b565b91505092915050565b5f604083015f8301516109df5f860182610800565b50602083015184820360208601526109f78282610851565b9150508091505092915050565b5f6020820190508181035f830152610a1c81846109ca565b905092915050565b5f604083015f830151610a395f860182610800565b5060208301518482036020860152610a518282610851565b9150508091505092915050565b5f6020820190508181035f830152610a768184610a24565b905092915050565b5f81519050919050565b5f82825260208201905092915050565b5f819050602082019050919050565b5f604083015f830151610abc5f860182610800565b5060208301518482036020860152610ad48282610851565b9150508091505092915050565b5f610aec8383610aa7565b905092915050565b5f602082019050919050565b5f610b0a82610a7e565b610b148185610a88565b935083602082028501610b2685610a98565b805f5b85811015610b615784840389528151610b428582610ae1565b9450610b4d83610af4565b925060208a01995050600181019050610b29565b50829750879550505050505092915050565b5f6020820190508181035f830152610b8b8184610b00565b905092915050565b7f4e487b71000000000000000000000000000000000000000000000000000000005f52602260045260245ffd5b5f6002820490506001821680610bd757607f821691505b602082108103610bea57610be9610b93565b5b50919050565b5f819050815f5260205f209050919050565b5f6020601f8301049050919050565b5f82821b905092915050565b5f60088302610c4c7fffffffffffffffffffffffffffffffffffffffffffffffffffffffffffffffff82610c11565b610c568683610c11565b95508019841693508086168417925050509392505050565b5f819050919050565b5f610c91610c8c610c87846107f7565b610c6e565b6107f7565b9050919050565b5f819050919050565b610caa83610c77565b610cbe610cb682610c98565b848454610c1d565b825550505050565b5f90565b610cd2610cc6565b610cdd818484610ca1565b505050565b5b81811015610d0057610cf55f82610cca565b600181019050610ce3565b5050565b601f821115610d4557610d1681610bf0565b610d1f84610c02565b81016020851015610d2e578190505b610d42610d3a85610c02565b830182610ce2565b50505b505050565b5f82821c905092915050565b5f610d655f1984600802610d4a565b1980831691505092915050565b5f610d7d8383610d56565b9150826002028217905092915050565b610d968261080f565b67ffffffffffffffff811115610daf57610dae610663565b5b610db98254610bc0565b610dc4828285610d04565b5f60209050601f831160018114610df5575f8415610de3578287015190505b610ded8582610d72565b865550610e54565b601f198416610e0386610bf0565b5f5b82811015610e2a57848901518255600182019150602085019450602081019050610e05565b86831015610e475784890151610e43601f891682610d56565b8355505b6001600288020188555050505b505050505050565b7f4e487b71000000000000000000000000000000000000000000000000000000005f52601160045260245ffd5b5f610e93826107f7565b91507fffffffffffffffffffffffffffffffffffffffffffffffffffffffffffffffff8203610ec557610ec4610e5c565b5b600182019050919050565b5f610eda826107f7565b9150610ee5836107f7565b9250828203905081811115610efd57610efc610e5c565b5b92915050565b7f4e487b71000000000000000000000000000000000000000000000000000000005f52603260045260245ffdfea2646970667358221220dbb5c8beee03511921a2d45ef73d308afe6cd430487c9848bdaf9c5d43aa849b64736f6c63430008150033",
  "linkReferences": {},
  "deployedLinkReferences": {}
}